{
  "contractName": "PragmaFixed",
  "abi": [
    {
      "inputs": [],
      "name": "x",
      "outputs": [
        {
          "internalType": "uint256",
          "name": "",
          "type": "uint256"
        }
      ],
      "stateMutability": "view",
      "type": "function"
    }
  ],
  "bytecode": "0x6080604052600160005534801561001557600080fd5b5060b3806100246000396000f3fe6080604052348015600f57600080fd5b506004361060285760003560e01c80630c55699c14602d575b600080fd5b60336047565b604051603e91906064565b60405180910390f35b60005481565b6000819050919050565b605e81604d565b82525050565b6000602082019050607760008301846057565b9291505056fea2646970667358221220452b0d03c4a412c618b3deda38582f45b1fee81b027c5b0eb850ab3a42463fa464736f6c63430008120033",
  "immutableReferences": {},
  "source": "// SPDX-License-Identifier: MITtr\n\n//we supposed that the clint thAT ASKED US TO Design token for, needed sone presale contract to raise some funds for his platform. so we designed this c\n//contract\npragma solidity >=0.4.0 <=0.9.0;\n\nimport \"@openzeppelin/contracts-upgradeable/token/ERC20/IERC20Upgradeable.sol\";\nimport \"@openzeppelin/contracts-upgradeable/access/OwnableUpgradeable.sol\";\n//SWC-107\nimport \"@openzeppelin/contracts-upgradeable/security/ReentrancyGuardUpgradeable.sol\";\n//SWC-103\ncontract PragmaFixed {\n    uint public x = 1;\n}\ncontract Presale is OwnableUpgradeable {\n    //total token sold\n    uint256 public totalSold;\n    //when presale start\n    uint256 public startTime;\n    //when presale end\n    uint256 public endTime;\n    //To change the claim start time by the owner new claim start time\n    uint256 public claimStart;\n    //sale toke address\n    address public sale_add;\n    uint256 public baseDecimals;\n    //max token every one could have\n    uint256 public maxtoken_each_prs;\n    //for buy with usdt(tether=1 dollar)\n    IERC20Upgradeable public USDT;\n    //number of tokens\n    uint256[9] public token_number;\n    //value of token\n    uint256[9] public token_price;\n    mapping(address => uint256) public users_address;\n    //these are events that in down rows we want to use them, to sure about process\n    event SaleTimeSet(uint256 _start, uint256 _end, uint256 timestamp);\n    event TokensClaimed(address indexed user,uint256 number,uint256 timestamp);\n    event TokensAdded(address indexed token,uint256 Tokens_number,uint256 timestamp);\n    event TokensBought(address indexed user,uint256 indexed tokensBought,address indexed purchaseToken,uint256 numberPaid,uint256 timestamp);\n\n    constructor() initializer {}\n    //Initializes the contract and sets parameters\n    // like  Oracle contract to fetch USDT price, USDT token contract address, start and end time of the presale\n    function initialize(address _oracle,address _usdt,uint256 _startTime,uint256 _endTime) external initializer {\n        require(_oracle != address(0), \"Zero address\");\n        require(_usdt != address(0), \"Zero address\");\n        require(_startTime > block.timestamp && _endTime > _startTime,\"time error\");\n\n        __Ownable_init_unchained();\n        maxtoken_each_prs = 1000;\n        baseDecimals = (10**18);\n        token_number = [100000];\n        token_price = [10000000000000000];\n        USDT = IERC20Upgradeable(_usdt);\n        startTime = _startTime;\n        endTime = _endTime;\n        emit SaleTimeSet(startTime, endTime, block.timestamp);\n    }\n    //calculate price of token\n    function calculatePrice(uint256 _number)public view returns (uint256 Value) {\n        uint256 value;\n        require(_number <= maxtoken_each_prs, \"max is 100\");\n        value = _number * token_price[1];\n        return value;\n    }\n    //check the presale time that should be ok\n    modifier sale_timecheck(uint256 number) {\n        require(block.timestamp > startTime && block.timestamp < endTime,\"time error\");\n        require(number > 0, \"Invalid sale number\");\n        _;\n    }\n    //this function buy the token for user in presale time\n    function buy(uint256 number) external sale_timecheck(number) returns (bool) {\n        uint256 price = calculatePrice(number);\n        price = price / (10**12);\n        totalSold += number;\n        users_address[_msgSender()] += (number * baseDecimals);\n        //we can add here a requirment to sure that the address is true\n\n        //emit the event tokensbought\n        emit TokensBought(_msgSender(),number,address(USDT),price,block.timestamp);\n        return true;\n    }\n    //When tokens become available, you can claim your tokens from Presale Smart Contract \n    //To claim tokens, send another transaction with the 0 value.\n    function startClaim(uint256 _claimStart,uint256 Tokens_number,address _sale_add) external onlyOwner returns (bool) {\n        require(_claimStart > endTime && _claimStart > block.timestamp,\"claiming not started\");\n        //we can add here a requirment to sure that total tokens number is equal or less than sale token\n        //check that the address isnt zero\n        require(_sale_add != address(0));\n        //chenck that the value of transaction is zero\n        require(_claimStart == 0, \"Claim \");\n         claimStart = _claimStart;\n         sale_add=_sale_add;\n        IERC20Upgradeable(_sale_add).transferFrom(\n            _msgSender(),\n            address(this),\n            Tokens_number\n        );\n        emit TokensAdded(sale_add, Tokens_number, block.timestamp);\n        return true;\n    }\n\n    //we can add here a function that if in the climing time have a problem, can\n    //change a climing time.\n\n/*      function changeClaimStart(uint256 _claimStart)external onlyOwner returns (bool)\n    {\n        require(claimStart > 0, \"claim start is wrong\");\n        require(_claimStart > endTime, \"Sale is in progress\");\n        require(_claimStart > block.timestamp, \"Claim time error\");\n        uint256 prevValue = claimStart;\n        claimStart = _claimStart;\n        emit ClaimStartUpdated(prevValue, _claimStart, block.timestamp);\n        return true;\n    }\n\n*/\n    //claim tokens after claiming starts\n    function claim() external returns (bool) {\n        require(sale_add != address(0));\n        require(block.timestamp >= claimStart, \"Claiming not started\");\n        uint256 number = users_address[_msgSender()];\n        require(number > 0, \"Nothing to claim\");\n        delete users_address[_msgSender()];\n        IERC20Upgradeable(sale_add).transfer(_msgSender(), number);\n        emit TokensClaimed(_msgSender(), number, block.timestamp);\n        return true;\n    }}\n",
  "sourcePath": "D:\\truffleProjects\\Presale\\contracts\\presale.sol",
  "compiler": {
    "name": "solc",
    "version": "0.8.18+commit.87f61d96.Emscripten.clang"
  },
  "schemaVersion": "3.4.11",
  "updatedAt": "2023-02-09T15:25:05.256Z",
  "devdoc": {
    "kind": "dev",
    "methods": {},
    "version": 1
  },
  "userdoc": {
    "kind": "user",
    "methods": {},
    "version": 1
  }
}