{
  "contractName": "Presale",
  "abi": [
    {
      "inputs": [],
      "stateMutability": "nonpayable",
      "type": "constructor"
    },
    {
      "anonymous": false,
      "inputs": [
        {
          "indexed": false,
          "internalType": "uint8",
          "name": "version",
          "type": "uint8"
        }
      ],
      "name": "Initialized",
      "type": "event"
    },
    {
      "anonymous": false,
      "inputs": [
        {
          "indexed": true,
          "internalType": "address",
          "name": "previousOwner",
          "type": "address"
        },
        {
          "indexed": true,
          "internalType": "address",
          "name": "newOwner",
          "type": "address"
        }
      ],
      "name": "OwnershipTransferred",
      "type": "event"
    },
    {
      "anonymous": false,
      "inputs": [
        {
          "indexed": false,
          "internalType": "uint256",
          "name": "_start",
          "type": "uint256"
        },
        {
          "indexed": false,
          "internalType": "uint256",
          "name": "_end",
          "type": "uint256"
        },
        {
          "indexed": false,
          "internalType": "uint256",
          "name": "timestamp",
          "type": "uint256"
        }
      ],
      "name": "SaleTimeSet",
      "type": "event"
    },
    {
      "anonymous": false,
      "inputs": [
        {
          "indexed": true,
          "internalType": "address",
          "name": "token",
          "type": "address"
        },
        {
          "indexed": false,
          "internalType": "uint256",
          "name": "Tokens_number",
          "type": "uint256"
        },
        {
          "indexed": false,
          "internalType": "uint256",
          "name": "timestamp",
          "type": "uint256"
        }
      ],
      "name": "TokensAdded",
      "type": "event"
    },
    {
      "anonymous": false,
      "inputs": [
        {
          "indexed": true,
          "internalType": "address",
          "name": "user",
          "type": "address"
        },
        {
          "indexed": true,
          "internalType": "uint256",
          "name": "tokensBought",
          "type": "uint256"
        },
        {
          "indexed": true,
          "internalType": "address",
          "name": "purchaseToken",
          "type": "address"
        },
        {
          "indexed": false,
          "internalType": "uint256",
          "name": "numberPaid",
          "type": "uint256"
        },
        {
          "indexed": false,
          "internalType": "uint256",
          "name": "timestamp",
          "type": "uint256"
        }
      ],
      "name": "TokensBought",
      "type": "event"
    },
    {
      "anonymous": false,
      "inputs": [
        {
          "indexed": true,
          "internalType": "address",
          "name": "user",
          "type": "address"
        },
        {
          "indexed": false,
          "internalType": "uint256",
          "name": "number",
          "type": "uint256"
        },
        {
          "indexed": false,
          "internalType": "uint256",
          "name": "timestamp",
          "type": "uint256"
        }
      ],
      "name": "TokensClaimed",
      "type": "event"
    },
    {
      "inputs": [],
      "name": "USDT",
      "outputs": [
        {
          "internalType": "contract IERC20Upgradeable",
          "name": "",
          "type": "address"
        }
      ],
      "stateMutability": "view",
      "type": "function",
      "constant": true
    },
    {
      "inputs": [],
      "name": "baseDecimals",
      "outputs": [
        {
          "internalType": "uint256",
          "name": "",
          "type": "uint256"
        }
      ],
      "stateMutability": "view",
      "type": "function",
      "constant": true
    },
    {
      "inputs": [],
      "name": "claimStart",
      "outputs": [
        {
          "internalType": "uint256",
          "name": "",
          "type": "uint256"
        }
      ],
      "stateMutability": "view",
      "type": "function",
      "constant": true
    },
    {
      "inputs": [],
      "name": "endTime",
      "outputs": [
        {
          "internalType": "uint256",
          "name": "",
          "type": "uint256"
        }
      ],
      "stateMutability": "view",
      "type": "function",
      "constant": true
    },
    {
      "inputs": [],
      "name": "maxtoken_each_prs",
      "outputs": [
        {
          "internalType": "uint256",
          "name": "",
          "type": "uint256"
        }
      ],
      "stateMutability": "view",
      "type": "function",
      "constant": true
    },
    {
      "inputs": [],
      "name": "owner",
      "outputs": [
        {
          "internalType": "address",
          "name": "",
          "type": "address"
        }
      ],
      "stateMutability": "view",
      "type": "function",
      "constant": true
    },
    {
      "inputs": [],
      "name": "renounceOwnership",
      "outputs": [],
      "stateMutability": "nonpayable",
      "type": "function"
    },
    {
      "inputs": [],
      "name": "sale_add",
      "outputs": [
        {
          "internalType": "address",
          "name": "",
          "type": "address"
        }
      ],
      "stateMutability": "view",
      "type": "function",
      "constant": true
    },
    {
      "inputs": [],
      "name": "startTime",
      "outputs": [
        {
          "internalType": "uint256",
          "name": "",
          "type": "uint256"
        }
      ],
      "stateMutability": "view",
      "type": "function",
      "constant": true
    },
    {
      "inputs": [
        {
          "internalType": "uint256",
          "name": "",
          "type": "uint256"
        }
      ],
      "name": "token_number",
      "outputs": [
        {
          "internalType": "uint256",
          "name": "",
          "type": "uint256"
        }
      ],
      "stateMutability": "view",
      "type": "function",
      "constant": true
    },
    {
      "inputs": [
        {
          "internalType": "uint256",
          "name": "",
          "type": "uint256"
        }
      ],
      "name": "token_price",
      "outputs": [
        {
          "internalType": "uint256",
          "name": "",
          "type": "uint256"
        }
      ],
      "stateMutability": "view",
      "type": "function",
      "constant": true
    },
    {
      "inputs": [],
      "name": "totalSold",
      "outputs": [
        {
          "internalType": "uint256",
          "name": "",
          "type": "uint256"
        }
      ],
      "stateMutability": "view",
      "type": "function",
      "constant": true
    },
    {
      "inputs": [
        {
          "internalType": "address",
          "name": "newOwner",
          "type": "address"
        }
      ],
      "name": "transferOwnership",
      "outputs": [],
      "stateMutability": "nonpayable",
      "type": "function"
    },
    {
      "inputs": [
        {
          "internalType": "address",
          "name": "",
          "type": "address"
        }
      ],
      "name": "users_address",
      "outputs": [
        {
          "internalType": "uint256",
          "name": "",
          "type": "uint256"
        }
      ],
      "stateMutability": "view",
      "type": "function",
      "constant": true
    },
    {
      "inputs": [
        {
          "internalType": "address",
          "name": "_oracle",
          "type": "address"
        },
        {
          "internalType": "address",
          "name": "_usdt",
          "type": "address"
        },
        {
          "internalType": "uint256",
          "name": "_startTime",
          "type": "uint256"
        },
        {
          "internalType": "uint256",
          "name": "_endTime",
          "type": "uint256"
        }
      ],
      "name": "initialize",
      "outputs": [],
      "stateMutability": "nonpayable",
      "type": "function"
    },
    {
      "inputs": [
        {
          "internalType": "uint256",
          "name": "_number",
          "type": "uint256"
        }
      ],
      "name": "calculatePrice",
      "outputs": [
        {
          "internalType": "uint256",
          "name": "Value",
          "type": "uint256"
        }
      ],
      "stateMutability": "view",
      "type": "function",
      "constant": true
    },
    {
      "inputs": [
        {
          "internalType": "uint256",
          "name": "number",
          "type": "uint256"
        }
      ],
      "name": "buy",
      "outputs": [
        {
          "internalType": "bool",
          "name": "",
          "type": "bool"
        }
      ],
      "stateMutability": "nonpayable",
      "type": "function"
    },
    {
      "inputs": [
        {
          "internalType": "uint256",
          "name": "_claimStart",
          "type": "uint256"
        },
        {
          "internalType": "uint256",
          "name": "Tokens_number",
          "type": "uint256"
        },
        {
          "internalType": "address",
          "name": "_sale_add",
          "type": "address"
        }
      ],
      "name": "startClaim",
      "outputs": [
        {
          "internalType": "bool",
          "name": "",
          "type": "bool"
        }
      ],
      "stateMutability": "nonpayable",
      "type": "function"
    },
    {
      "inputs": [],
      "name": "claim",
      "outputs": [
        {
          "internalType": "bool",
          "name": "",
          "type": "bool"
        }
      ],
      "stateMutability": "nonpayable",
      "type": "function"
    }
  ],
  "bytecode": "0x60806040523480156200001157600080fd5b5060008060019054906101000a900460ff16159050808015620000445750600160008054906101000a900460ff1660ff16105b8062000080575062000061306200016360201b62000f8b1760201c565b1580156200007f5750600160008054906101000a900460ff1660ff16145b5b620000c2576040517f08c379a0000000000000000000000000000000000000000000000000000000008152600401620000b9906200020d565b60405180910390fd5b60016000806101000a81548160ff021916908360ff160217905550801562000100576001600060016101000a81548160ff0219169083151502179055505b80156200015c5760008060016101000a81548160ff0219169083151502179055507f7f26b83ff96e1f2b6a682f133852f6798a09c465da95921460cefb3847402498600160405162000153919062000289565b60405180910390a15b50620002a6565b6000808273ffffffffffffffffffffffffffffffffffffffff163b119050919050565b600082825260208201905092915050565b7f496e697469616c697a61626c653a20636f6e747261637420697320616c72656160008201527f647920696e697469616c697a6564000000000000000000000000000000000000602082015250565b6000620001f5602e8362000186565b9150620002028262000197565b604082019050919050565b600060208201905081810360008301526200022881620001e6565b9050919050565b6000819050919050565b600060ff82169050919050565b6000819050919050565b6000620002716200026b62000265846200022f565b62000246565b62000239565b9050919050565b620002838162000250565b82525050565b6000602082019050620002a0600083018462000278565b92915050565b611d3480620002b66000396000f3fe608060405234801561001057600080fd5b50600436106101215760003560e01c806378e97925116100ad578063c54e44eb11610071578063c54e44eb14610310578063d96a094a1461032e578063eb990c591461035e578063f04d688f1461037a578063f2fde38b1461039857610121565b806378e97925146102565780638da5cb5b146102745780639106d7ba14610292578063ae104265146102b0578063b2caaebd146102e057610121565b80633197cbb6116100f45780633197cbb6146101d457806333f76178146101f25780634e71d92d146102105780635e105e621461022e578063715018a61461024c57610121565b80630853ca96146101265780630be76272146101565780631977a73c146101745780632818553f146101a4575b600080fd5b610140600480360381019061013b9190611245565b6103b4565b60405161014d9190611281565b60405180910390f35b61015e6103cf565b60405161016b91906112dd565b60405180910390f35b61018e60048036038101906101899190611324565b6103f5565b60405161019b9190611281565b60405180910390f35b6101be60048036038101906101b99190611245565b61040d565b6040516101cb9190611281565b60405180910390f35b6101dc610428565b6040516101e99190611281565b60405180910390f35b6101fa61042e565b6040516102079190611281565b60405180910390f35b610218610434565b604051610225919061136c565b60405180910390f35b6102366106b4565b6040516102439190611281565b60405180910390f35b6102546106ba565b005b61025e6106ce565b60405161026b9190611281565b60405180910390f35b61027c6106d4565b60405161028991906112dd565b60405180910390f35b61029a6106fe565b6040516102a79190611281565b60405180910390f35b6102ca60048036038101906102c59190611245565b610704565b6040516102d79190611281565b60405180910390f35b6102fa60048036038101906102f59190611387565b610779565b604051610307919061136c565b60405180910390f35b61031861099b565b6040516103259190611439565b60405180910390f35b61034860048036038101906103439190611245565b6109c1565b604051610355919061136c565b60405180910390f35b61037860048036038101906103739190611454565b610b97565b005b610382610f02565b60405161038f9190611281565b60405180910390f35b6103b260048036038101906103ad9190611324565b610f08565b005b606d81600981106103c457600080fd5b016000915090505481565b606960009054906101000a900473ffffffffffffffffffffffffffffffffffffffff1681565b607f6020528060005260406000206000915090505481565b6076816009811061041d57600080fd5b016000915090505481565b60675481565b606a5481565b60008073ffffffffffffffffffffffffffffffffffffffff16606960009054906101000a900473ffffffffffffffffffffffffffffffffffffffff1673ffffffffffffffffffffffffffffffffffffffff160361049057600080fd5b6068544210156104d5576040517f08c379a00000000000000000000000000000000000000000000000000000000081526004016104cc90611518565b60405180910390fd5b6000607f60006104e3610fae565b73ffffffffffffffffffffffffffffffffffffffff1673ffffffffffffffffffffffffffffffffffffffff16815260200190815260200160002054905060008111610563576040517f08c379a000000000000000000000000000000000000000000000000000000000815260040161055a90611584565b60405180910390fd5b607f600061056f610fae565b73ffffffffffffffffffffffffffffffffffffffff1673ffffffffffffffffffffffffffffffffffffffff16815260200190815260200160002060009055606960009054906101000a900473ffffffffffffffffffffffffffffffffffffffff1673ffffffffffffffffffffffffffffffffffffffff1663a9059cbb6105f3610fae565b836040518363ffffffff1660e01b81526004016106119291906115a4565b6020604051808303816000875af1158015610630573d6000803e3d6000fd5b505050506040513d601f19601f8201168201806040525081019061065491906115f9565b5061065d610fae565b73ffffffffffffffffffffffffffffffffffffffff167f9923b4306c6c030f2bdfbf156517d5983b87e15b96176da122cd4f2effa4ba7b82426040516106a4929190611626565b60405180910390a2600191505090565b606b5481565b6106c2610fb6565b6106cc6000611034565b565b60665481565b6000603360009054906101000a900473ffffffffffffffffffffffffffffffffffffffff16905090565b60655481565b600080606b5483111561074c576040517f08c379a00000000000000000000000000000000000000000000000000000000081526004016107439061169b565b60405180910390fd5b6076600160098110610761576107606116bb565b5b01548361076e9190611719565b905080915050919050565b6000610783610fb6565b6067548411801561079357504284115b6107d2576040517f08c379a00000000000000000000000000000000000000000000000000000000081526004016107c9906117a7565b60405180910390fd5b600073ffffffffffffffffffffffffffffffffffffffff168273ffffffffffffffffffffffffffffffffffffffff160361080b57600080fd5b6000841461084e576040517f08c379a000000000000000000000000000000000000000000000000000000000815260040161084590611813565b60405180910390fd5b8360688190555081606960006101000a81548173ffffffffffffffffffffffffffffffffffffffff021916908373ffffffffffffffffffffffffffffffffffffffff1602179055508173ffffffffffffffffffffffffffffffffffffffff166323b872dd6108ba610fae565b30866040518463ffffffff1660e01b81526004016108da93929190611833565b6020604051808303816000875af11580156108f9573d6000803e3d6000fd5b505050506040513d601f19601f8201168201806040525081019061091d91906115f9565b50606960009054906101000a900473ffffffffffffffffffffffffffffffffffffffff1673ffffffffffffffffffffffffffffffffffffffff167fdc9670dbabdd488b372eb16ebe49a39b3124a12cdffdcefbc89834a408bf8ff88442604051610988929190611626565b60405180910390a2600190509392505050565b606c60009054906101000a900473ffffffffffffffffffffffffffffffffffffffff1681565b600081606654421180156109d6575060675442105b610a15576040517f08c379a0000000000000000000000000000000000000000000000000000000008152600401610a0c906118b6565b60405180910390fd5b60008111610a58576040517f08c379a0000000000000000000000000000000000000000000000000000000008152600401610a4f90611922565b60405180910390fd5b6000610a6384610704565b905064e8d4a5100081610a769190611971565b90508360656000828254610a8a91906119a2565b92505081905550606a5484610a9f9190611719565b607f6000610aab610fae565b73ffffffffffffffffffffffffffffffffffffffff1673ffffffffffffffffffffffffffffffffffffffff1681526020019081526020016000206000828254610af491906119a2565b92505081905550606c60009054906101000a900473ffffffffffffffffffffffffffffffffffffffff1673ffffffffffffffffffffffffffffffffffffffff1684610b3d610fae565b73ffffffffffffffffffffffffffffffffffffffff167f62e796e00a8e66154d78da76daae129635b4795a6e1b889f2caa6c5cea22ac688442604051610b84929190611626565b60405180910390a4600192505050919050565b60008060019054906101000a900460ff16159050808015610bc85750600160008054906101000a900460ff1660ff16105b80610bf55750610bd730610f8b565b158015610bf45750600160008054906101000a900460ff1660ff16145b5b610c34576040517f08c379a0000000000000000000000000000000000000000000000000000000008152600401610c2b90611a48565b60405180910390fd5b60016000806101000a81548160ff021916908360ff1602179055508015610c71576001600060016101000a81548160ff0219169083151502179055505b600073ffffffffffffffffffffffffffffffffffffffff168573ffffffffffffffffffffffffffffffffffffffff1603610ce0576040517f08c379a0000000000000000000000000000000000000000000000000000000008152600401610cd790611ab4565b60405180910390fd5b600073ffffffffffffffffffffffffffffffffffffffff168473ffffffffffffffffffffffffffffffffffffffff1603610d4f576040517f08c379a0000000000000000000000000000000000000000000000000000000008152600401610d4690611ab4565b60405180910390fd5b4283118015610d5d57508282115b610d9c576040517f08c379a0000000000000000000000000000000000000000000000000000000008152600401610d93906118b6565b60405180910390fd5b610da46110fa565b6103e8606b81905550670de0b6b3a7640000606a819055506040518060200160405280620186a062ffffff16815250606d906001610de392919061115b565b506040518060200160405280662386f26fc1000066ffffffffffffff168152506076906001610e139291906111a2565b5083606c60006101000a81548173ffffffffffffffffffffffffffffffffffffffff021916908373ffffffffffffffffffffffffffffffffffffffff16021790555082606681905550816067819055507f23f6ad8232d75562dd1c6b37dfc895af6bfc1ecd0fb3b88722c6a5e6b4dc9a2060665460675442604051610e9a93929190611ad4565b60405180910390a18015610efb5760008060016101000a81548160ff0219169083151502179055507f7f26b83ff96e1f2b6a682f133852f6798a09c465da95921460cefb38474024986001604051610ef29190611b53565b60405180910390a15b5050505050565b60685481565b610f10610fb6565b600073ffffffffffffffffffffffffffffffffffffffff168173ffffffffffffffffffffffffffffffffffffffff1603610f7f576040517f08c379a0000000000000000000000000000000000000000000000000000000008152600401610f7690611be0565b60405180910390fd5b610f8881611034565b50565b6000808273ffffffffffffffffffffffffffffffffffffffff163b119050919050565b600033905090565b610fbe610fae565b73ffffffffffffffffffffffffffffffffffffffff16610fdc6106d4565b73ffffffffffffffffffffffffffffffffffffffff1614611032576040517f08c379a000000000000000000000000000000000000000000000000000000000815260040161102990611c4c565b60405180910390fd5b565b6000603360009054906101000a900473ffffffffffffffffffffffffffffffffffffffff16905081603360006101000a81548173ffffffffffffffffffffffffffffffffffffffff021916908373ffffffffffffffffffffffffffffffffffffffff1602179055508173ffffffffffffffffffffffffffffffffffffffff168173ffffffffffffffffffffffffffffffffffffffff167f8be0079c531659141344cd1fd0a4f28419497f9722a3daafe3b4186f6b6457e060405160405180910390a35050565b600060019054906101000a900460ff16611149576040517f08c379a000000000000000000000000000000000000000000000000000000000815260040161114090611cde565b60405180910390fd5b611159611154610fae565b611034565b565b8260098101928215611191579160200282015b82811115611190578251829062ffffff1690559160200191906001019061116e565b5b50905061119e91906111ed565b5090565b82600981019282156111dc579160200282015b828111156111db578251829066ffffffffffffff169055916020019190600101906111b5565b5b5090506111e991906111ed565b5090565b5b808211156112065760008160009055506001016111ee565b5090565b600080fd5b6000819050919050565b6112228161120f565b811461122d57600080fd5b50565b60008135905061123f81611219565b92915050565b60006020828403121561125b5761125a61120a565b5b600061126984828501611230565b91505092915050565b61127b8161120f565b82525050565b60006020820190506112966000830184611272565b92915050565b600073ffffffffffffffffffffffffffffffffffffffff82169050919050565b60006112c78261129c565b9050919050565b6112d7816112bc565b82525050565b60006020820190506112f260008301846112ce565b92915050565b611301816112bc565b811461130c57600080fd5b50565b60008135905061131e816112f8565b92915050565b60006020828403121561133a5761133961120a565b5b60006113488482850161130f565b91505092915050565b60008115159050919050565b61136681611351565b82525050565b6000602082019050611381600083018461135d565b92915050565b6000806000606084860312156113a05761139f61120a565b5b60006113ae86828701611230565b93505060206113bf86828701611230565b92505060406113d08682870161130f565b9150509250925092565b6000819050919050565b60006113ff6113fa6113f58461129c565b6113da565b61129c565b9050919050565b6000611411826113e4565b9050919050565b600061142382611406565b9050919050565b61143381611418565b82525050565b600060208201905061144e600083018461142a565b92915050565b6000806000806080858703121561146e5761146d61120a565b5b600061147c8782880161130f565b945050602061148d8782880161130f565b935050604061149e87828801611230565b92505060606114af87828801611230565b91505092959194509250565b600082825260208201905092915050565b7f436c61696d696e67206e6f742073746172746564000000000000000000000000600082015250565b60006115026014836114bb565b915061150d826114cc565b602082019050919050565b60006020820190508181036000830152611531816114f5565b9050919050565b7f4e6f7468696e6720746f20636c61696d00000000000000000000000000000000600082015250565b600061156e6010836114bb565b915061157982611538565b602082019050919050565b6000602082019050818103600083015261159d81611561565b9050919050565b60006040820190506115b960008301856112ce565b6115c66020830184611272565b9392505050565b6115d681611351565b81146115e157600080fd5b50565b6000815190506115f3816115cd565b92915050565b60006020828403121561160f5761160e61120a565b5b600061161d848285016115e4565b91505092915050565b600060408201905061163b6000830185611272565b6116486020830184611272565b9392505050565b7f6d61782069732031303000000000000000000000000000000000000000000000600082015250565b6000611685600a836114bb565b91506116908261164f565b602082019050919050565b600060208201905081810360008301526116b481611678565b9050919050565b7f4e487b7100000000000000000000000000000000000000000000000000000000600052603260045260246000fd5b7f4e487b7100000000000000000000000000000000000000000000000000000000600052601160045260246000fd5b60006117248261120f565b915061172f8361120f565b925082820261173d8161120f565b91508282048414831517611754576117536116ea565b5b5092915050565b7f636c61696d696e67206e6f742073746172746564000000000000000000000000600082015250565b60006117916014836114bb565b915061179c8261175b565b602082019050919050565b600060208201905081810360008301526117c081611784565b9050919050565b7f436c61696d200000000000000000000000000000000000000000000000000000600082015250565b60006117fd6006836114bb565b9150611808826117c7565b602082019050919050565b6000602082019050818103600083015261182c816117f0565b9050919050565b600060608201905061184860008301866112ce565b61185560208301856112ce565b6118626040830184611272565b949350505050565b7f74696d65206572726f7200000000000000000000000000000000000000000000600082015250565b60006118a0600a836114bb565b91506118ab8261186a565b602082019050919050565b600060208201905081810360008301526118cf81611893565b9050919050565b7f496e76616c69642073616c65206e756d62657200000000000000000000000000600082015250565b600061190c6013836114bb565b9150611917826118d6565b602082019050919050565b6000602082019050818103600083015261193b816118ff565b9050919050565b7f4e487b7100000000000000000000000000000000000000000000000000000000600052601260045260246000fd5b600061197c8261120f565b91506119878361120f565b92508261199757611996611942565b5b828204905092915050565b60006119ad8261120f565b91506119b88361120f565b92508282019050808211156119d0576119cf6116ea565b5b92915050565b7f496e697469616c697a61626c653a20636f6e747261637420697320616c72656160008201527f647920696e697469616c697a6564000000000000000000000000000000000000602082015250565b6000611a32602e836114bb565b9150611a3d826119d6565b604082019050919050565b60006020820190508181036000830152611a6181611a25565b9050919050565b7f5a65726f20616464726573730000000000000000000000000000000000000000600082015250565b6000611a9e600c836114bb565b9150611aa982611a68565b602082019050919050565b60006020820190508181036000830152611acd81611a91565b9050919050565b6000606082019050611ae96000830186611272565b611af66020830185611272565b611b036040830184611272565b949350505050565b6000819050919050565b600060ff82169050919050565b6000611b3d611b38611b3384611b0b565b6113da565b611b15565b9050919050565b611b4d81611b22565b82525050565b6000602082019050611b686000830184611b44565b92915050565b7f4f776e61626c653a206e6577206f776e657220697320746865207a65726f206160008201527f6464726573730000000000000000000000000000000000000000000000000000602082015250565b6000611bca6026836114bb565b9150611bd582611b6e565b604082019050919050565b60006020820190508181036000830152611bf981611bbd565b9050919050565b7f4f776e61626c653a2063616c6c6572206973206e6f7420746865206f776e6572600082015250565b6000611c366020836114bb565b9150611c4182611c00565b602082019050919050565b60006020820190508181036000830152611c6581611c29565b9050919050565b7f496e697469616c697a61626c653a20636f6e7472616374206973206e6f74206960008201527f6e697469616c697a696e67000000000000000000000000000000000000000000602082015250565b6000611cc8602b836114bb565b9150611cd382611c6c565b604082019050919050565b60006020820190508181036000830152611cf781611cbb565b905091905056fea2646970667358221220998d7740977b5af4b7690a604269fa59cabb9fef2fc6d7865612089d9c522bed64736f6c63430008120033",
  "immutableReferences": {},
  "source": "// SPDX-License-Identifier: MITtr\n\n//we supposed that the clint thAT ASKED US TO Design token for, needed sone presale contract to raise some funds for his platform. so we designed this c\n//contract\npragma solidity >=0.4.0 <=0.9.0;\n\nimport \"@openzeppelin/contracts-upgradeable/token/ERC20/IERC20Upgradeable.sol\";\nimport \"@openzeppelin/contracts-upgradeable/access/OwnableUpgradeable.sol\";\n//SWC-107\nimport \"@openzeppelin/contracts-upgradeable/security/ReentrancyGuardUpgradeable.sol\";\n//SWC-103\ncontract PragmaFixed {\n    uint public x = 1;\n}\ncontract Presale is OwnableUpgradeable {\n    //total token sold\n    uint256 public totalSold;\n    //when presale start\n    uint256 public startTime;\n    //when presale end\n    uint256 public endTime;\n    //To change the claim start time by the owner new claim start time\n    uint256 public claimStart;\n    //sale toke address\n    address public sale_add;\n    uint256 public baseDecimals;\n    //max token every one could have\n    uint256 public maxtoken_each_prs;\n    //for buy with usdt(tether=1 dollar)\n    IERC20Upgradeable public USDT;\n    //number of tokens\n    uint256[9] public token_number;\n    //value of token\n    uint256[9] public token_price;\n    mapping(address => uint256) public users_address;\n    //these are events that in down rows we want to use them, to sure about process\n    event SaleTimeSet(uint256 _start, uint256 _end, uint256 timestamp);\n    event TokensClaimed(address indexed user,uint256 number,uint256 timestamp);\n    event TokensAdded(address indexed token,uint256 Tokens_number,uint256 timestamp);\n    event TokensBought(address indexed user,uint256 indexed tokensBought,address indexed purchaseToken,uint256 numberPaid,uint256 timestamp);\n\n    constructor() initializer {}\n    //Initializes the contract and sets parameters\n    // like  Oracle contract to fetch USDT price, USDT token contract address, start and end time of the presale\n    function initialize(address _oracle,address _usdt,uint256 _startTime,uint256 _endTime) external initializer {\n        require(_oracle != address(0), \"Zero address\");\n        require(_usdt != address(0), \"Zero address\");\n        require(_startTime > block.timestamp && _endTime > _startTime,\"time error\");\n\n        __Ownable_init_unchained();\n        maxtoken_each_prs = 1000;\n        baseDecimals = (10**18);\n        token_number = [100000];\n        token_price = [10000000000000000];\n        USDT = IERC20Upgradeable(_usdt);\n        startTime = _startTime;\n        endTime = _endTime;\n        emit SaleTimeSet(startTime, endTime, block.timestamp);\n    }\n    //calculate price of token\n    function calculatePrice(uint256 _number)public view returns (uint256 Value) {\n        uint256 value;\n        require(_number <= maxtoken_each_prs, \"max is 100\");\n        value = _number * token_price[1];\n        return value;\n    }\n    //check the presale time that should be ok\n    modifier sale_timecheck(uint256 number) {\n        require(block.timestamp > startTime && block.timestamp < endTime,\"time error\");\n        require(number > 0, \"Invalid sale number\");\n        _;\n    }\n    //this function buy the token for user in presale time\n    function buy(uint256 number) external sale_timecheck(number) returns (bool) {\n        uint256 price = calculatePrice(number);\n        price = price / (10**12);\n        totalSold += number;\n        users_address[_msgSender()] += (number * baseDecimals);\n        //we can add here a requirment to sure that the address is true\n\n        //emit the event tokensbought\n        emit TokensBought(_msgSender(),number,address(USDT),price,block.timestamp);\n        return true;\n    }\n    //When tokens become available, you can claim your tokens from Presale Smart Contract \n    //To claim tokens, send another transaction with the 0 value.\n    function startClaim(uint256 _claimStart,uint256 Tokens_number,address _sale_add) external onlyOwner returns (bool) {\n        require(_claimStart > endTime && _claimStart > block.timestamp,\"claiming not started\");\n        //we can add here a requirment to sure that total tokens number is equal or less than sale token\n        //check that the address isnt zero\n        require(_sale_add != address(0));\n        //chenck that the value of transaction is zero\n        require(_claimStart == 0, \"Claim \");\n         claimStart = _claimStart;\n         sale_add=_sale_add;\n        IERC20Upgradeable(_sale_add).transferFrom(\n            _msgSender(),\n            address(this),\n            Tokens_number\n        );\n        emit TokensAdded(sale_add, Tokens_number, block.timestamp);\n        return true;\n    }\n\n    //we can add here a function that if in the climing time have a problem, can\n    //change a climing time.\n\n/*      function changeClaimStart(uint256 _claimStart)external onlyOwner returns (bool)\n    {\n        require(claimStart > 0, \"claim start is wrong\");\n        require(_claimStart > endTime, \"Sale is in progress\");\n        require(_claimStart > block.timestamp, \"Claim time error\");\n        uint256 prevValue = claimStart;\n        claimStart = _claimStart;\n        emit ClaimStartUpdated(prevValue, _claimStart, block.timestamp);\n        return true;\n    }\n\n*/\n    //claim tokens after claiming starts\n    function claim() external returns (bool) {\n        require(sale_add != address(0));\n        require(block.timestamp >= claimStart, \"Claiming not started\");\n        uint256 number = users_address[_msgSender()];\n        require(number > 0, \"Nothing to claim\");\n        delete users_address[_msgSender()];\n        IERC20Upgradeable(sale_add).transfer(_msgSender(), number);\n        emit TokensClaimed(_msgSender(), number, block.timestamp);\n        return true;\n    }}\n",
  "sourcePath": "D:\\truffleProjects\\Presale\\contracts\\presale.sol",
  "compiler": {
    "name": "solc",
    "version": "0.8.18+commit.87f61d96.Emscripten.clang"
  },
  "schemaVersion": "3.4.11",
  "updatedAt": "2023-02-09T15:25:12.161Z",
  "networkType": "ethereum",
  "devdoc": {
    "events": {
      "Initialized(uint8)": {
        "details": "Triggered when the contract has been initialized or reinitialized."
      }
    },
    "kind": "dev",
    "methods": {
      "owner()": {
        "details": "Returns the address of the current owner."
      },
      "renounceOwnership()": {
        "details": "Leaves the contract without owner. It will not be possible to call `onlyOwner` functions anymore. Can only be called by the current owner. NOTE: Renouncing ownership will leave the contract without an owner, thereby removing any functionality that is only available to the owner."
      },
      "transferOwnership(address)": {
        "details": "Transfers ownership of the contract to a new account (`newOwner`). Can only be called by the current owner."
      }
    },
    "version": 1
  },
  "userdoc": {
    "kind": "user",
    "methods": {},
    "version": 1
  }
}