{
  "contractName": "Token",
  "abi": [
    {
      "inputs": [
        {
          "internalType": "address",
          "name": "_to",
          "type": "address"
        }
      ],
      "stateMutability": "nonpayable",
      "type": "constructor"
    },
    {
      "anonymous": false,
      "inputs": [
        {
          "indexed": true,
          "internalType": "address",
          "name": "owner",
          "type": "address"
        },
        {
          "indexed": true,
          "internalType": "address",
          "name": "spender",
          "type": "address"
        },
        {
          "indexed": false,
          "internalType": "uint256",
          "name": "value",
          "type": "uint256"
        }
      ],
      "name": "Approval",
      "type": "event"
    },
    {
      "anonymous": false,
      "inputs": [
        {
          "indexed": true,
          "internalType": "address",
          "name": "from",
          "type": "address"
        },
        {
          "indexed": true,
          "internalType": "address",
          "name": "to",
          "type": "address"
        },
        {
          "indexed": false,
          "internalType": "uint256",
          "name": "value",
          "type": "uint256"
        }
      ],
      "name": "Transfer",
      "type": "event"
    },
    {
      "inputs": [],
      "name": "max_token",
      "outputs": [
        {
          "internalType": "uint256",
          "name": "",
          "type": "uint256"
        }
      ],
      "stateMutability": "view",
      "type": "function"
    },
    {
      "inputs": [],
      "name": "name",
      "outputs": [
        {
          "internalType": "string",
          "name": "",
          "type": "string"
        }
      ],
      "stateMutability": "view",
      "type": "function"
    },
    {
      "inputs": [],
      "name": "symbol",
      "outputs": [
        {
          "internalType": "string",
          "name": "",
          "type": "string"
        }
      ],
      "stateMutability": "view",
      "type": "function"
    },
    {
      "inputs": [],
      "name": "decimals",
      "outputs": [
        {
          "internalType": "uint8",
          "name": "",
          "type": "uint8"
        }
      ],
      "stateMutability": "view",
      "type": "function"
    },
    {
      "inputs": [],
      "name": "totalSupply",
      "outputs": [
        {
          "internalType": "uint256",
          "name": "",
          "type": "uint256"
        }
      ],
      "stateMutability": "view",
      "type": "function"
    },
    {
      "inputs": [
        {
          "internalType": "address",
          "name": "account",
          "type": "address"
        }
      ],
      "name": "balanceOf",
      "outputs": [
        {
          "internalType": "uint256",
          "name": "",
          "type": "uint256"
        }
      ],
      "stateMutability": "view",
      "type": "function"
    },
    {
      "inputs": [
        {
          "internalType": "address",
          "name": "recipient",
          "type": "address"
        },
        {
          "internalType": "uint256",
          "name": "amount",
          "type": "uint256"
        }
      ],
      "name": "transfer",
      "outputs": [
        {
          "internalType": "bool",
          "name": "",
          "type": "bool"
        }
      ],
      "stateMutability": "nonpayable",
      "type": "function"
    },
    {
      "inputs": [
        {
          "internalType": "address",
          "name": "from",
          "type": "address"
        },
        {
          "internalType": "address",
          "name": "to",
          "type": "address"
        }
      ],
      "name": "allowance",
      "outputs": [
        {
          "internalType": "uint256",
          "name": "",
          "type": "uint256"
        }
      ],
      "stateMutability": "view",
      "type": "function"
    },
    {
      "inputs": [
        {
          "internalType": "address",
          "name": "to",
          "type": "address"
        },
        {
          "internalType": "uint256",
          "name": "amount",
          "type": "uint256"
        }
      ],
      "name": "approve",
      "outputs": [
        {
          "internalType": "bool",
          "name": "",
          "type": "bool"
        }
      ],
      "stateMutability": "nonpayable",
      "type": "function"
    },
    {
      "inputs": [
        {
          "internalType": "address",
          "name": "sender",
          "type": "address"
        },
        {
          "internalType": "address",
          "name": "recipient",
          "type": "address"
        },
        {
          "internalType": "uint256",
          "name": "amount",
          "type": "uint256"
        }
      ],
      "name": "transferFrom",
      "outputs": [
        {
          "internalType": "bool",
          "name": "",
          "type": "bool"
        }
      ],
      "stateMutability": "nonpayable",
      "type": "function"
    },
    {
      "inputs": [
        {
          "internalType": "address",
          "name": "to",
          "type": "address"
        },
        {
          "internalType": "uint256",
          "name": "addedValue",
          "type": "uint256"
        }
      ],
      "name": "increaseAllowance",
      "outputs": [
        {
          "internalType": "bool",
          "name": "",
          "type": "bool"
        }
      ],
      "stateMutability": "nonpayable",
      "type": "function"
    },
    {
      "inputs": [
        {
          "internalType": "address",
          "name": "to",
          "type": "address"
        },
        {
          "internalType": "uint256",
          "name": "subtractedValue",
          "type": "uint256"
        }
      ],
      "name": "decreaseAllowance",
      "outputs": [
        {
          "internalType": "bool",
          "name": "",
          "type": "bool"
        }
      ],
      "stateMutability": "nonpayable",
      "type": "function"
    },
    {
      "inputs": [
        {
          "internalType": "uint256",
          "name": "amount",
          "type": "uint256"
        }
      ],
      "name": "burn",
      "outputs": [],
      "stateMutability": "nonpayable",
      "type": "function"
    }
  ],
  "bytecode": "0x60806040523480156200001157600080fd5b5060405162001b1438038062001b1483398181016040528101906200003791906200029b565b600073ffffffffffffffffffffffffffffffffffffffff168173ffffffffffffffffffffffffffffffffffffffff1603620000a9576040517f08c379a0000000000000000000000000000000000000000000000000000000008152600401620000a0906200032e565b60405180910390fd5b620000da816012600a620000be9190620004ea565b620186a0620000ce91906200053b565b620000e160201b60201c565b5062000661565b600073ffffffffffffffffffffffffffffffffffffffff168273ffffffffffffffffffffffffffffffffffffffff160362000153576040517f08c379a00000000000000000000000000000000000000000000000000000000081526004016200014a90620005d6565b60405180910390fd5b8060026000828254620001679190620005f8565b92505081905550806000808473ffffffffffffffffffffffffffffffffffffffff1673ffffffffffffffffffffffffffffffffffffffff1681526020019081526020016000206000828254620001be9190620005f8565b925050819055508173ffffffffffffffffffffffffffffffffffffffff16600073ffffffffffffffffffffffffffffffffffffffff167fddf252ad1be2c89b69c2b068fc378daa952ba7f163c4a11628f55a4df523b3ef8360405162000225919062000644565b60405180910390a35050565b600080fd5b600073ffffffffffffffffffffffffffffffffffffffff82169050919050565b6000620002638262000236565b9050919050565b620002758162000256565b81146200028157600080fd5b50565b60008151905062000295816200026a565b92915050565b600060208284031215620002b457620002b362000231565b5b6000620002c48482850162000284565b91505092915050565b600082825260208201905092915050565b7f6572726f723a20616464206973207a65726f0000000000000000000000000000600082015250565b600062000316601283620002cd565b91506200032382620002de565b602082019050919050565b60006020820190508181036000830152620003498162000307565b9050919050565b7f4e487b7100000000000000000000000000000000000000000000000000000000600052601160045260246000fd5b60008160011c9050919050565b6000808291508390505b6001851115620003de57808604811115620003b657620003b562000350565b5b6001851615620003c65780820291505b8081029050620003d6856200037f565b945062000396565b94509492505050565b600082620003f95760019050620004cc565b81620004095760009050620004cc565b81600181146200042257600281146200042d5762000463565b6001915050620004cc565b60ff84111562000442576200044162000350565b5b8360020a9150848211156200045c576200045b62000350565b5b50620004cc565b5060208310610133831016604e8410600b84101617156200049d5782820a90508381111562000497576200049662000350565b5b620004cc565b620004ac84848460016200038c565b92509050818404811115620004c657620004c562000350565b5b81810290505b9392505050565b6000819050919050565b600060ff82169050919050565b6000620004f782620004d3565b91506200050483620004dd565b9250620005337fffffffffffffffffffffffffffffffffffffffffffffffffffffffffffffffff8484620003e7565b905092915050565b60006200054882620004d3565b91506200055583620004d3565b92508282026200056581620004d3565b915082820484148315176200057f576200057e62000350565b5b5092915050565b7f7a65726f20616464726573730000000000000000000000000000000000000000600082015250565b6000620005be600c83620002cd565b9150620005cb8262000586565b602082019050919050565b60006020820190508181036000830152620005f181620005af565b9050919050565b60006200060582620004d3565b91506200061283620004d3565b92508282019050808211156200062d576200062c62000350565b5b92915050565b6200063e81620004d3565b82525050565b60006020820190506200065b600083018462000633565b92915050565b6114a380620006716000396000f3fe608060405234801561001057600080fd5b50600436106100cf5760003560e01c806342966c681161008c57806395d89b411161006657806395d89b4114610228578063a457c2d714610246578063a9059cbb14610276578063dd62ed3e146102a6576100cf565b806342966c68146101be57806368b840b6146101da57806370a08231146101f8576100cf565b806306fdde03146100d4578063095ea7b3146100f257806318160ddd1461012257806323b872dd14610140578063313ce56714610170578063395093511461018e575b600080fd5b6100dc6102d6565b6040516100e99190610d75565b60405180910390f35b61010c60048036038101906101079190610e30565b610313565b6040516101199190610e8b565b60405180910390f35b61012a610331565b6040516101379190610eb5565b60405180910390f35b61015a60048036038101906101559190610ed0565b61033b565b6040516101679190610e8b565b60405180910390f35b610178610433565b6040516101859190610f3f565b60405180910390f35b6101a860048036038101906101a39190610e30565b61043c565b6040516101b59190610e8b565b60405180910390f35b6101d860048036038101906101d39190610f5a565b6104e8565b005b6101e26104fc565b6040516101ef9190610eb5565b60405180910390f35b610212600480360381019061020d9190610f87565b61051b565b60405161021f9190610eb5565b60405180910390f35b610230610563565b60405161023d9190610d75565b60405180910390f35b610260600480360381019061025b9190610e30565b6105a0565b60405161026d9190610e8b565b60405180910390f35b610290600480360381019061028b9190610e30565b610648565b60405161029d9190610e8b565b60405180910390f35b6102c060048036038101906102bb9190610fb4565b610666565b6040516102cd9190610eb5565b60405180910390f35b60606040518060400160405280600b81526020017f6d757369635f546f6b656e000000000000000000000000000000000000000000815250905090565b60006103276103206106ed565b84846106f5565b6001905092915050565b6000600254905090565b60006103488484846108be565b6000600160008673ffffffffffffffffffffffffffffffffffffffff1673ffffffffffffffffffffffffffffffffffffffff16815260200190815260200160002060006103936106ed565b73ffffffffffffffffffffffffffffffffffffffff1673ffffffffffffffffffffffffffffffffffffffff16815260200190815260200160002054905082811015610413576040517f08c379a000000000000000000000000000000000000000000000000000000000815260040161040a90611066565b60405180910390fd5b6104278561041f6106ed565b8584036106f5565b60019150509392505050565b60006012905090565b60006104de6104496106ed565b8484600160006104576106ed565b73ffffffffffffffffffffffffffffffffffffffff1673ffffffffffffffffffffffffffffffffffffffff16815260200190815260200160002060008873ffffffffffffffffffffffffffffffffffffffff1673ffffffffffffffffffffffffffffffffffffffff168152602001908152602001600020546104d991906110b5565b6106f5565b6001905092915050565b6104f96104f36106ed565b82610b27565b50565b6012600a61050a919061121c565b620186a06105189190611267565b81565b60008060008373ffffffffffffffffffffffffffffffffffffffff1673ffffffffffffffffffffffffffffffffffffffff168152602001908152602001600020549050919050565b60606040518060400160405280600381526020017f6d75730000000000000000000000000000000000000000000000000000000000815250905090565b600080600160006105af6106ed565b73ffffffffffffffffffffffffffffffffffffffff1673ffffffffffffffffffffffffffffffffffffffff16815260200190815260200160002060008573ffffffffffffffffffffffffffffffffffffffff1673ffffffffffffffffffffffffffffffffffffffff16815260200190815260200160002054905061063d6106346106ed565b858584036106f5565b600191505092915050565b600061065c6106556106ed565b84846108be565b6001905092915050565b6000600160008473ffffffffffffffffffffffffffffffffffffffff1673ffffffffffffffffffffffffffffffffffffffff16815260200190815260200160002060008373ffffffffffffffffffffffffffffffffffffffff1673ffffffffffffffffffffffffffffffffffffffff16815260200190815260200160002054905092915050565b600033905090565b600073ffffffffffffffffffffffffffffffffffffffff168373ffffffffffffffffffffffffffffffffffffffff1603610764576040517f08c379a000000000000000000000000000000000000000000000000000000000815260040161075b906112f5565b60405180910390fd5b600073ffffffffffffffffffffffffffffffffffffffff168273ffffffffffffffffffffffffffffffffffffffff16036107d3576040517f08c379a00000000000000000000000000000000000000000000000000000000081526004016107ca906112f5565b60405180910390fd5b80600160008573ffffffffffffffffffffffffffffffffffffffff1673ffffffffffffffffffffffffffffffffffffffff16815260200190815260200160002060008473ffffffffffffffffffffffffffffffffffffffff1673ffffffffffffffffffffffffffffffffffffffff168152602001908152602001600020819055508173ffffffffffffffffffffffffffffffffffffffff168373ffffffffffffffffffffffffffffffffffffffff167f8c5be1e5ebec7d5bd14f71427d1e84f3dd0314c0f7b2291e5b200ac8c7c3b925836040516108b19190610eb5565b60405180910390a3505050565b600073ffffffffffffffffffffffffffffffffffffffff168373ffffffffffffffffffffffffffffffffffffffff160361092d576040517f08c379a0000000000000000000000000000000000000000000000000000000008152600401610924906112f5565b60405180910390fd5b600073ffffffffffffffffffffffffffffffffffffffff168273ffffffffffffffffffffffffffffffffffffffff160361099c576040517f08c379a0000000000000000000000000000000000000000000000000000000008152600401610993906112f5565b60405180910390fd5b60008060008573ffffffffffffffffffffffffffffffffffffffff1673ffffffffffffffffffffffffffffffffffffffff16815260200190815260200160002054905081811015610a22576040517f08c379a0000000000000000000000000000000000000000000000000000000008152600401610a1990611387565b60405180910390fd5b8181036000808673ffffffffffffffffffffffffffffffffffffffff1673ffffffffffffffffffffffffffffffffffffffff16815260200190815260200160002081905550816000808573ffffffffffffffffffffffffffffffffffffffff1673ffffffffffffffffffffffffffffffffffffffff1681526020019081526020016000206000828254610ab591906110b5565b925050819055508273ffffffffffffffffffffffffffffffffffffffff168473ffffffffffffffffffffffffffffffffffffffff167fddf252ad1be2c89b69c2b068fc378daa952ba7f163c4a11628f55a4df523b3ef84604051610b199190610eb5565b60405180910390a350505050565b600073ffffffffffffffffffffffffffffffffffffffff168273ffffffffffffffffffffffffffffffffffffffff1603610b96576040517f08c379a0000000000000000000000000000000000000000000000000000000008152600401610b8d906112f5565b60405180910390fd5b60008060008473ffffffffffffffffffffffffffffffffffffffff1673ffffffffffffffffffffffffffffffffffffffff16815260200190815260200160002054905081811015610c1c576040517f08c379a0000000000000000000000000000000000000000000000000000000008152600401610c1390611419565b60405180910390fd5b8181036000808573ffffffffffffffffffffffffffffffffffffffff1673ffffffffffffffffffffffffffffffffffffffff168152602001908152602001600020819055508160026000828254610c739190611439565b92505081905550600073ffffffffffffffffffffffffffffffffffffffff168373ffffffffffffffffffffffffffffffffffffffff167fddf252ad1be2c89b69c2b068fc378daa952ba7f163c4a11628f55a4df523b3ef84604051610cd89190610eb5565b60405180910390a3505050565b600081519050919050565b600082825260208201905092915050565b60005b83811015610d1f578082015181840152602081019050610d04565b60008484015250505050565b6000601f19601f8301169050919050565b6000610d4782610ce5565b610d518185610cf0565b9350610d61818560208601610d01565b610d6a81610d2b565b840191505092915050565b60006020820190508181036000830152610d8f8184610d3c565b905092915050565b600080fd5b600073ffffffffffffffffffffffffffffffffffffffff82169050919050565b6000610dc782610d9c565b9050919050565b610dd781610dbc565b8114610de257600080fd5b50565b600081359050610df481610dce565b92915050565b6000819050919050565b610e0d81610dfa565b8114610e1857600080fd5b50565b600081359050610e2a81610e04565b92915050565b60008060408385031215610e4757610e46610d97565b5b6000610e5585828601610de5565b9250506020610e6685828601610e1b565b9150509250929050565b60008115159050919050565b610e8581610e70565b82525050565b6000602082019050610ea06000830184610e7c565b92915050565b610eaf81610dfa565b82525050565b6000602082019050610eca6000830184610ea6565b92915050565b600080600060608486031215610ee957610ee8610d97565b5b6000610ef786828701610de5565b9350506020610f0886828701610de5565b9250506040610f1986828701610e1b565b9150509250925092565b600060ff82169050919050565b610f3981610f23565b82525050565b6000602082019050610f546000830184610f30565b92915050565b600060208284031215610f7057610f6f610d97565b5b6000610f7e84828501610e1b565b91505092915050565b600060208284031215610f9d57610f9c610d97565b5b6000610fab84828501610de5565b91505092915050565b60008060408385031215610fcb57610fca610d97565b5b6000610fd985828601610de5565b9250506020610fea85828601610de5565b9150509250929050565b7f4572726f723a207472616e7366657220616d6f756e742065786365656473206160008201527f6c6c6f77616e6365000000000000000000000000000000000000000000000000602082015250565b6000611050602883610cf0565b915061105b82610ff4565b604082019050919050565b6000602082019050818103600083015261107f81611043565b9050919050565b7f4e487b7100000000000000000000000000000000000000000000000000000000600052601160045260246000fd5b60006110c082610dfa565b91506110cb83610dfa565b92508282019050808211156110e3576110e2611086565b5b92915050565b60008160011c9050919050565b6000808291508390505b60018511156111405780860481111561111c5761111b611086565b5b600185161561112b5780820291505b8081029050611139856110e9565b9450611100565b94509492505050565b6000826111595760019050611215565b816111675760009050611215565b816001811461117d5760028114611187576111b6565b6001915050611215565b60ff84111561119957611198611086565b5b8360020a9150848211156111b0576111af611086565b5b50611215565b5060208310610133831016604e8410600b84101617156111eb5782820a9050838111156111e6576111e5611086565b5b611215565b6111f884848460016110f6565b9250905081840481111561120f5761120e611086565b5b81810290505b9392505050565b600061122782610dfa565b915061123283610f23565b925061125f7fffffffffffffffffffffffffffffffffffffffffffffffffffffffffffffffff8484611149565b905092915050565b600061127282610dfa565b915061127d83610dfa565b925082820261128b81610dfa565b915082820484148315176112a2576112a1611086565b5b5092915050565b7f7a65726f20616464726573730000000000000000000000000000000000000000600082015250565b60006112df600c83610cf0565b91506112ea826112a9565b602082019050919050565b6000602082019050818103600083015261130e816112d2565b9050919050565b7f4572726f723a207472616e7366657220616d6f756e742065786365656473206260008201527f616c616e63650000000000000000000000000000000000000000000000000000602082015250565b6000611371602683610cf0565b915061137c82611315565b604082019050919050565b600060208201905081810360008301526113a081611364565b9050919050565b7f4572726f723a206275726e20616d6f756e7420657863656564732062616c616e60008201527f6365000000000000000000000000000000000000000000000000000000000000602082015250565b6000611403602283610cf0565b915061140e826113a7565b604082019050919050565b60006020820190508181036000830152611432816113f6565b9050919050565b600061144482610dfa565b915061144f83610dfa565b925082820390508181111561146757611466611086565b5b9291505056fea26469706673582212201d4dd5000dcd099cfe3f2dc5e51e44253c32b03a668634ae04c97ec73405ad3e64736f6c63430008120033",
  "immutableReferences": {},
  "source": "// SPDX-License-Identifier: MIT\n\n\npragma solidity >=0.4.0 <=0.9.0;\n\nimport \"@openzeppelin/contracts/utils/Context.sol\";\nimport \"@openzeppelin/contracts/token/ERC20/extensions/IERC20Metadata.sol\";\n//SWC-107\nimport \"@openzeppelin/contracts-upgradeable/security/ReentrancyGuardUpgradeable.sol\";\n//SWC-103\ncontract PragmaFixed {\n    uint public x = 1;\n}\ncontract Token is Context, IERC20Metadata {\n    using SafeMath for uint256;\n    //address and its balances of token.\n    mapping(address => uint256) private _balances;\n    //amount one address can spend from other address account,\n    mapping(address => mapping(address => uint256)) private _allowances;\n    //total supply of tokens in the contract.\n    uint256 private _totalSupply;\n    string private constant _name= \"music_Token\";\n    string private constant _symbol=\"mus\";\n    uint8 private constant _decimals = 18;\n    //max token\n    uint256 public constant max_token = 100000 * (10**_decimals); \n\n    constructor(\n        //add of owner\n        address _to\n    ) {\n        //check if add not zero\n        require(_to != address(0), \"error: add is zero\");\n        _mint(_to, max_token);\n    }\n    //\n    //we can inherit from a base contract and then override a function in that base contract\n    //\n    // recieve token name from creator. here this function do nothing\n    //it could be olso external\n    function name() public view virtual override returns (string memory) {\n        return _name;\n    }\n    //recieve token symbol from creator. here this function do nothing\n    function symbol() public view virtual override returns (string memory) {\n        return _symbol;\n    }\n    //recieve token decimals base from creator. here this function do nothing\n    function decimals() public view virtual override returns (uint8) {\n        return _decimals;\n    }\n    //It returns the total supply of tokens in the contract. here this function do nothing\n    function totalSupply() public view virtual override returns (uint256) {\n        return _totalSupply;\n    }\n    //amount of account\n    function balanceOf(address account)public view virtual override returns (uint256)\n    {\n        return _balances[account];\n    }\n    //sure about transfer done right\n    function transfer(address recipient, uint256 amount)public virtual override returns (bool) {\n        _transfer(_msgSender(), recipient, amount);\n        return true;\n    }\n    //amount address==> from can spend from address==> to's account,\n    function allowance(address from, address to) public view virtual override returns (uint256) {\n        return _allowances[from][to];\n    }\n    //Transactions are not sent until you see the other part's transaction.\n    function approve(address to, uint256 amount)public virtual override returns (bool){\n        _approve(_msgSender(), to, amount);\n        return true;\n    }\n    function _approve(address from,address to,uint256 amount) internal virtual {\n        require(from != address(0), \"zero address\");\n        require(to != address(0), \"zero address\");\n        _allowances[from][to] = amount;\n        //emits an Approval event indicating the updated allowance\n        //Approval event must be triggered on any successful call to the approve() function\n        emit Approval(from, to, amount);\n    }\n    //check transfer from is ok\n    function transferFrom(address sender,address recipient,uint256 amount) public virtual override returns (bool) {\n        _transfer(sender, recipient, amount);\n        uint256 currentAllowance = _allowances[sender][_msgSender()];\n        require(currentAllowance >= amount,\"Error: transfer amount exceeds allowance\");\n        //use for save gas\n        unchecked {_approve(sender, _msgSender(), currentAllowance - amount);}\n\n        return true;\n    }\n    //check add value is possible\n    function increaseAllowance(address to, uint256 addedValue) public virtual returns (bool){\n        _approve(_msgSender(), to, _allowances[_msgSender()][to] + addedValue);\n        return true;\n    }\n     //check dec value is possible\n    function decreaseAllowance(address to, uint256 subtractedValue) public virtual returns (bool) {\n        uint256 currentAllowance = _allowances[_msgSender()][to];\n        unchecked { _approve(_msgSender(), to, currentAllowance - subtractedValue);}\n        return true;\n    }\n    //transfer amount from sender to reciever\n    function _transfer(address sender,address recipient,uint256 amount) internal virtual {\n        require(sender != address(0), \"zero address\");\n        require(recipient != address(0), \"zero address\");\n        uint256 senderBalance = _balances[sender];\n        require(senderBalance >= amount,\"Error: transfer amount exceeds balance\");\n        unchecked {_balances[sender] = senderBalance - amount;}\n        _balances[recipient] += amount;\n        //If you are talking about ERC20 tokens they typically should emit \n        //the Transfer event when tokens have been transferred. However there\n        // is no way to determine for sure whether they always do th\n        emit Transfer(sender, recipient, amount);\n    }\n    //modify the total supply of tokens, mint new tokens\n    function _mint(address account, uint256 amount) internal virtual {\n        require(account != address(0), \"zero address\");\n        _totalSupply += amount;\n        _balances[account] += amount;\n        emit Transfer(address(0), account, amount);\n    }\n\n    function burn(uint256 amount) external {\n        _burn(_msgSender(), amount);\n    }    \n\n    //modify the total supply of tokens, burn existing tokens\n    function _burn(address account, uint256 amount) internal virtual {\n        require(account != address(0), \"zero address\");\n        uint256 accountBalance = _balances[account];\n        require(accountBalance >= amount, \"Error: burn amount exceeds balance\");\n        unchecked {_balances[account] = accountBalance - amount;}\n        _totalSupply -= amount;\n        emit Transfer(account, address(0), amount);\n    }\n\n\n\n\n}\n\n//**********************************************************************************************\n//SWC-101\nlibrary SafeMath {\n \n   function mul(uint256 a, uint256 b) internal pure returns (uint256) {\n        return a * b;\n    }\n\n    function div(uint256 a, uint256 b) internal pure returns (uint256) {\n        return a / b;\n    }\n\n    function mod(uint256 a, uint256 b) internal pure returns (uint256) {\n        return a % b;\n    }\n\n    function add(uint256 a, uint256 b) internal pure returns (uint256) {\n        return a + b;\n    }\n    function sub(uint256 a, uint256 b) internal pure returns (uint256) {\n        return a - b;\n    }\n\n     function flag_Add(uint256 a, uint256 b) internal pure returns (bool, uint256) {\n        unchecked {uint256 c = a + b;if (c < a) return (false, 0);\n            return (true, c);\n        }\n    }\n\n    function flag_Sub(uint256 a, uint256 b) internal pure returns (bool, uint256) {\n        unchecked {if (b > a) return (false, 0);\n            return (true, a - b);\n        }\n    }\n\n    function flag_Mul(uint256 a, uint256 b) internal pure returns (bool, uint256) {\n        unchecked {if (a == 0) return (true, 0);uint256 c = a * b; if (c / a != b) return (false, 0);\n            return (true, c);\n        }\n    }\n\n    function flag_Div(uint256 a, uint256 b) internal pure returns (bool, uint256) {\n        unchecked {if (b == 0) return (false, 0);\n            return (true, a / b);\n        }\n    }\n\n    function flag_Mod(uint256 a, uint256 b) internal pure returns (bool, uint256) {\n        unchecked {\n            if (b == 0) return (false, 0);\n            return (true, a % b);\n        }\n    }\n    \n}",
  "sourcePath": "D:\\truffleProjects\\Presale\\contracts\\Token.sol",
  "compiler": {
    "name": "solc",
    "version": "0.8.18+commit.87f61d96.Emscripten.clang"
  },
  "schemaVersion": "3.4.11",
  "updatedAt": "2023-02-09T15:25:12.127Z",
  "networkType": "ethereum",
  "devdoc": {
    "events": {
      "Approval(address,address,uint256)": {
        "details": "Emitted when the allowance of a `spender` for an `owner` is set by a call to {approve}. `value` is the new allowance."
      },
      "Transfer(address,address,uint256)": {
        "details": "Emitted when `value` tokens are moved from one account (`from`) to another (`to`). Note that `value` may be zero."
      }
    },
    "kind": "dev",
    "methods": {
      "balanceOf(address)": {
        "details": "Returns the amount of tokens owned by `account`."
      },
      "decimals()": {
        "details": "Returns the decimals places of the token."
      },
      "name()": {
        "details": "Returns the name of the token."
      },
      "symbol()": {
        "details": "Returns the symbol of the token."
      },
      "totalSupply()": {
        "details": "Returns the amount of tokens in existence."
      }
    },
    "version": 1
  },
  "userdoc": {
    "kind": "user",
    "methods": {},
    "version": 1
  }
}